{
  "_format": "hh-sol-artifact-1",
  "contractName": "HedgepieTreasury",
  "sourceName": "contracts/HedgepieTreasury.sol",
  "abi": [
    {
      "inputs": [],
      "stateMutability": "nonpayable",
      "type": "constructor"
    },
    {
      "inputs": [],
      "name": "restake",
      "outputs": [
        {
          "internalType": "bool",
          "name": "",
          "type": "bool"
        }
      ],
      "stateMutability": "nonpayable",
      "type": "function"
    },
    {
      "stateMutability": "payable",
      "type": "receive"
    }
  ],
  "bytecode": "0x6080604052348015600f57600080fd5b50608f8061001e6000396000f3fe608060405260043610601f5760003560e01c80634f91440d14602a576025565b36602557005b600080fd5b348015603557600080fd5b50603c6054565b60405180821515815260200191505060405180910390f35b60009056fea2646970667358221220c9fab2afcc4a63b777ed77c11535ece358aebbdd3f172074be4e6a8b1703e85764736f6c63430007050033",
  "linkReferences": {},
  "deployedLinkReferences": {}
}