{
  "_format": "hh-sol-artifact-1",
  "contractName": "HedgepieYBNFT",
  "sourceName": "contracts/HedgepieYBNFT.sol",
  "abi": [
    {
      "inputs": [
        {
          "internalType": "address",
          "name": "_lottery",
          "type": "address"
        },
        {
          "internalType": "address",
          "name": "_treasury",
          "type": "address"
        },
        {
          "internalType": "address",
          "name": "_distributor",
          "type": "address"
        }
      ],
      "stateMutability": "nonpayable",
      "type": "constructor"
    },
    {
      "anonymous": false,
      "inputs": [
        {
          "indexed": true,
          "internalType": "address",
          "name": "owner",
          "type": "address"
        },
        {
          "indexed": true,
          "internalType": "address",
          "name": "approved",
          "type": "address"
        },
        {
          "indexed": true,
          "internalType": "uint256",
          "name": "tokenId",
          "type": "uint256"
        }
      ],
      "name": "Approval",
      "type": "event"
    },
    {
      "anonymous": false,
      "inputs": [
        {
          "indexed": true,
          "internalType": "address",
          "name": "owner",
          "type": "address"
        },
        {
          "indexed": true,
          "internalType": "address",
          "name": "operator",
          "type": "address"
        },
        {
          "indexed": false,
          "internalType": "bool",
          "name": "approved",
          "type": "bool"
        }
      ],
      "name": "ApprovalForAll",
      "type": "event"
    },
    {
      "anonymous": false,
      "inputs": [
        {
          "indexed": false,
          "internalType": "uint256",
          "name": "_tokenId",
          "type": "uint256"
        },
        {
          "indexed": true,
          "internalType": "address",
          "name": "_funder",
          "type": "address"
        },
        {
          "indexed": false,
          "internalType": "address",
          "name": "_token",
          "type": "address"
        },
        {
          "indexed": false,
          "internalType": "uint256",
          "name": "_amount",
          "type": "uint256"
        }
      ],
      "name": "Deposit",
      "type": "event"
    },
    {
      "anonymous": false,
      "inputs": [
        {
          "indexed": false,
          "internalType": "uint256",
          "name": "_tokenId",
          "type": "uint256"
        },
        {
          "indexed": true,
          "internalType": "address",
          "name": "_to",
          "type": "address"
        }
      ],
      "name": "Mint",
      "type": "event"
    },
    {
      "anonymous": false,
      "inputs": [
        {
          "indexed": true,
          "internalType": "address",
          "name": "previousOwner",
          "type": "address"
        },
        {
          "indexed": true,
          "internalType": "address",
          "name": "newOwner",
          "type": "address"
        }
      ],
      "name": "OwnershipTransferred",
      "type": "event"
    },
    {
      "anonymous": false,
      "inputs": [
        {
          "indexed": true,
          "internalType": "address",
          "name": "from",
          "type": "address"
        },
        {
          "indexed": true,
          "internalType": "address",
          "name": "to",
          "type": "address"
        },
        {
          "indexed": true,
          "internalType": "uint256",
          "name": "tokenId",
          "type": "uint256"
        }
      ],
      "name": "Transfer",
      "type": "event"
    },
    {
      "inputs": [
        {
          "internalType": "address",
          "name": "",
          "type": "address"
        }
      ],
      "name": "AllowedToken",
      "outputs": [
        {
          "internalType": "bool",
          "name": "",
          "type": "bool"
        }
      ],
      "stateMutability": "view",
      "type": "function"
    },
    {
      "inputs": [],
      "name": "Distributor",
      "outputs": [
        {
          "internalType": "address",
          "name": "",
          "type": "address"
        }
      ],
      "stateMutability": "view",
      "type": "function"
    },
    {
      "inputs": [],
      "name": "Lottery",
      "outputs": [
        {
          "internalType": "address",
          "name": "",
          "type": "address"
        }
      ],
      "stateMutability": "view",
      "type": "function"
    },
    {
      "inputs": [
        {
          "internalType": "uint256",
          "name": "",
          "type": "uint256"
        },
        {
          "internalType": "uint256",
          "name": "",
          "type": "uint256"
        }
      ],
      "name": "NFTFunds",
      "outputs": [
        {
          "internalType": "address",
          "name": "funder",
          "type": "address"
        },
        {
          "internalType": "address",
          "name": "token",
          "type": "address"
        },
        {
          "internalType": "uint256",
          "name": "amount",
          "type": "uint256"
        }
      ],
      "stateMutability": "view",
      "type": "function"
    },
    {
      "inputs": [],
      "name": "PCSRouter",
      "outputs": [
        {
          "internalType": "address",
          "name": "",
          "type": "address"
        }
      ],
      "stateMutability": "view",
      "type": "function"
    },
    {
      "inputs": [],
      "name": "Treasury",
      "outputs": [
        {
          "internalType": "address",
          "name": "",
          "type": "address"
        }
      ],
      "stateMutability": "view",
      "type": "function"
    },
    {
      "inputs": [],
      "name": "WBNB",
      "outputs": [
        {
          "internalType": "address",
          "name": "",
          "type": "address"
        }
      ],
      "stateMutability": "view",
      "type": "function"
    },
    {
      "inputs": [
        {
          "internalType": "address",
          "name": "to",
          "type": "address"
        },
        {
          "internalType": "uint256",
          "name": "tokenId",
          "type": "uint256"
        }
      ],
      "name": "approve",
      "outputs": [],
      "stateMutability": "nonpayable",
      "type": "function"
    },
    {
      "inputs": [
        {
          "internalType": "address",
          "name": "owner",
          "type": "address"
        }
      ],
      "name": "balanceOf",
      "outputs": [
        {
          "internalType": "uint256",
          "name": "",
          "type": "uint256"
        }
      ],
      "stateMutability": "view",
      "type": "function"
    },
    {
      "inputs": [
        {
          "internalType": "uint256",
          "name": "tokenId",
          "type": "uint256"
        }
      ],
      "name": "chkToken",
      "outputs": [
        {
          "internalType": "bool",
          "name": "",
          "type": "bool"
        }
      ],
      "stateMutability": "view",
      "type": "function"
    },
    {
      "inputs": [
        {
          "internalType": "uint256[]",
          "name": "swapPercent",
          "type": "uint256[]"
        },
        {
          "internalType": "address[]",
          "name": "swapToken",
          "type": "address[]"
        },
        {
          "internalType": "address[]",
          "name": "stakeAddress",
          "type": "address[]"
        }
      ],
      "name": "createToken",
      "outputs": [
        {
          "internalType": "uint256",
          "name": "tokenId",
          "type": "uint256"
        }
      ],
      "stateMutability": "nonpayable",
      "type": "function"
    },
    {
      "inputs": [
        {
          "internalType": "uint256",
          "name": "tokenId",
          "type": "uint256"
        },
        {
          "internalType": "uint256",
          "name": "amount",
          "type": "uint256"
        },
        {
          "internalType": "address",
          "name": "token",
          "type": "address"
        }
      ],
      "name": "deposit",
      "outputs": [
        {
          "internalType": "bool",
          "name": "",
          "type": "bool"
        }
      ],
      "stateMutability": "nonpayable",
      "type": "function"
    },
    {
      "inputs": [
        {
          "internalType": "uint256",
          "name": "tokenId",
          "type": "uint256"
        }
      ],
      "name": "getApproved",
      "outputs": [
        {
          "internalType": "address",
          "name": "",
          "type": "address"
        }
      ],
      "stateMutability": "view",
      "type": "function"
    },
    {
      "inputs": [
        {
          "internalType": "address",
          "name": "owner",
          "type": "address"
        },
        {
          "internalType": "address",
          "name": "operator",
          "type": "address"
        }
      ],
      "name": "isApprovedForAll",
      "outputs": [
        {
          "internalType": "bool",
          "name": "",
          "type": "bool"
        }
      ],
      "stateMutability": "view",
      "type": "function"
    },
    {
      "inputs": [
        {
          "internalType": "address[]",
          "name": "tokens",
          "type": "address[]"
        },
        {
          "internalType": "bool",
          "name": "flag",
          "type": "bool"
        }
      ],
      "name": "manageToken",
      "outputs": [],
      "stateMutability": "nonpayable",
      "type": "function"
    },
    {
      "inputs": [],
      "name": "name",
      "outputs": [
        {
          "internalType": "string",
          "name": "",
          "type": "string"
        }
      ],
      "stateMutability": "view",
      "type": "function"
    },
    {
      "inputs": [],
      "name": "owner",
      "outputs": [
        {
          "internalType": "address",
          "name": "",
          "type": "address"
        }
      ],
      "stateMutability": "view",
      "type": "function"
    },
    {
      "inputs": [
        {
          "internalType": "uint256",
          "name": "tokenId",
          "type": "uint256"
        }
      ],
      "name": "ownerOf",
      "outputs": [
        {
          "internalType": "address",
          "name": "",
          "type": "address"
        }
      ],
      "stateMutability": "view",
      "type": "function"
    },
    {
      "inputs": [],
      "name": "renounceOwnership",
      "outputs": [],
      "stateMutability": "nonpayable",
      "type": "function"
    },
    {
      "inputs": [
        {
          "internalType": "address",
          "name": "from",
          "type": "address"
        },
        {
          "internalType": "address",
          "name": "to",
          "type": "address"
        },
        {
          "internalType": "uint256",
          "name": "tokenId",
          "type": "uint256"
        }
      ],
      "name": "safeTransferFrom",
      "outputs": [],
      "stateMutability": "nonpayable",
      "type": "function"
    },
    {
      "inputs": [
        {
          "internalType": "address",
          "name": "from",
          "type": "address"
        },
        {
          "internalType": "address",
          "name": "to",
          "type": "address"
        },
        {
          "internalType": "uint256",
          "name": "tokenId",
          "type": "uint256"
        },
        {
          "internalType": "bytes",
          "name": "_data",
          "type": "bytes"
        }
      ],
      "name": "safeTransferFrom",
      "outputs": [],
      "stateMutability": "nonpayable",
      "type": "function"
    },
    {
      "inputs": [
        {
          "internalType": "address",
          "name": "operator",
          "type": "address"
        },
        {
          "internalType": "bool",
          "name": "approved",
          "type": "bool"
        }
      ],
      "name": "setApprovalForAll",
      "outputs": [],
      "stateMutability": "nonpayable",
      "type": "function"
    },
    {
      "inputs": [
        {
          "internalType": "bytes4",
          "name": "interfaceId",
          "type": "bytes4"
        }
      ],
      "name": "supportsInterface",
      "outputs": [
        {
          "internalType": "bool",
          "name": "",
          "type": "bool"
        }
      ],
      "stateMutability": "view",
      "type": "function"
    },
    {
      "inputs": [],
      "name": "symbol",
      "outputs": [
        {
          "internalType": "string",
          "name": "",
          "type": "string"
        }
      ],
      "stateMutability": "view",
      "type": "function"
    },
    {
      "inputs": [
        {
          "internalType": "uint256",
          "name": "tokenId",
          "type": "uint256"
        }
      ],
      "name": "tokenURI",
      "outputs": [
        {
          "internalType": "string",
          "name": "",
          "type": "string"
        }
      ],
      "stateMutability": "view",
      "type": "function"
    },
    {
      "inputs": [
        {
          "internalType": "address",
          "name": "from",
          "type": "address"
        },
        {
          "internalType": "address",
          "name": "to",
          "type": "address"
        },
        {
          "internalType": "uint256",
          "name": "tokenId",
          "type": "uint256"
        }
      ],
      "name": "transferFrom",
      "outputs": [],
      "stateMutability": "nonpayable",
      "type": "function"
    },
    {
      "inputs": [
        {
          "internalType": "address",
          "name": "newOwner",
          "type": "address"
        }
      ],
      "name": "transferOwnership",
      "outputs": [],
      "stateMutability": "nonpayable",
      "type": "function"
    }
  ],
  "bytecode": "0x60e06040523480156200001157600080fd5b5060405162004b3438038062004b348339818101604052810190620000379190620003bc565b6040518060400160405280600e81526020017f48656467657069652059424e46540000000000000000000000000000000000008152506040518060400160405280600581526020017f59424e46540000000000000000000000000000000000000000000000000000008152508160009080519060200190620000bb929190620002ef565b508060019080519060200190620000d4929190620002ef565b5050506000620000e9620002e760201b60201c565b905080600760006101000a81548173ffffffffffffffffffffffffffffffffffffffff021916908373ffffffffffffffffffffffffffffffffffffffff1602179055508073ffffffffffffffffffffffffffffffffffffffff16600073ffffffffffffffffffffffffffffffffffffffff167f8be0079c531659141344cd1fd0a4f28419497f9722a3daafe3b4186f6b6457e060405160405180910390a350600073ffffffffffffffffffffffffffffffffffffffff168373ffffffffffffffffffffffffffffffffffffffff161415620001c357600080fd5b600073ffffffffffffffffffffffffffffffffffffffff168273ffffffffffffffffffffffffffffffffffffffff161415620001fe57600080fd5b600073ffffffffffffffffffffffffffffffffffffffff168173ffffffffffffffffffffffffffffffffffffffff1614156200023957600080fd5b8273ffffffffffffffffffffffffffffffffffffffff1660808173ffffffffffffffffffffffffffffffffffffffff1660601b815250508173ffffffffffffffffffffffffffffffffffffffff1660a08173ffffffffffffffffffffffffffffffffffffffff1660601b815250508073ffffffffffffffffffffffffffffffffffffffff1660c08173ffffffffffffffffffffffffffffffffffffffff1660601b8152505050505062000460565b600033905090565b828054600181600116156101000203166002900490600052602060002090601f01602090048101928262000327576000855562000373565b82601f106200034257805160ff191683800117855562000373565b8280016001018555821562000373579182015b828111156200037257825182559160200191906001019062000355565b5b50905062000382919062000386565b5090565b5b80821115620003a157600081600090555060010162000387565b5090565b600081519050620003b68162000446565b92915050565b600080600060608486031215620003d257600080fd5b6000620003e286828701620003a5565b9350506020620003f586828701620003a5565b92505060406200040886828701620003a5565b9150509250925092565b60006200041f8262000426565b9050919050565b600073ffffffffffffffffffffffffffffffffffffffff82169050919050565b620004518162000412565b81146200045d57600080fd5b50565b60805160601c60a05160601c60c05160601c61469e62000496600039806108e3525080610b59525080610b15525061469e6000f3fe608060405234801561001057600080fd5b50600436106101a95760003560e01c8063777671bf116100f9578063aedb642b11610097578063c87b56dd11610071578063c87b56dd146104d0578063e985e9c514610500578063f2fde38b14610530578063fd45fc841461054c576101a9565b8063aedb642b14610466578063b88d4fde14610484578063b9677242146104a0576101a9565b80638dbdbe6d116100d35780638dbdbe6d146103de5780638dd950021461040e57806395d89b411461042c578063a22cb4651461044a576101a9565b8063777671bf146103745780637be90564146103a45780638da5cb5b146103c0576101a9565b80632b546a3c11610166578063563df32f11610140578063563df32f146102ec5780636352211e1461030a57806370a082311461033a578063715018a61461036a576101a9565b80632b546a3c146102825780634245b0f7146102b257806342842e0e146102d0576101a9565b806301ffc9a7146101ae57806306fdde03146101de578063081812fc146101fc578063095ea7b31461022c5780632039d8901461024857806323b872dd14610266575b600080fd5b6101c860048036038101906101c39190613dc6565b61057e565b6040516101d5919061406f565b60405180910390f35b6101e6610660565b6040516101f3919061408a565b60405180910390f35b61021660048036038101906102119190613def565b610702565b604051610223919061401d565b60405180910390f35b61024660048036038101906102419190613c4d565b61079d565b005b6102506108e1565b60405161025d919061401d565b60405180910390f35b610280600480360381019061027b9190613b47565b610905565b005b61029c60048036038101906102979190613ce1565b61097b565b6040516102a991906140ec565b60405180910390f35b6102ba610b13565b6040516102c7919061401d565b60405180910390f35b6102ea60048036038101906102e59190613b47565b610b37565b005b6102f4610b57565b604051610301919061401d565b60405180910390f35b610324600480360381019061031f9190613def565b610b7b565b604051610331919061401d565b60405180910390f35b610354600480360381019061034f9190613ae2565b610c43565b60405161036191906140ec565b60405180910390f35b610372610d11565b005b61038e60048036038101906103899190613ae2565b610e9c565b60405161039b919061406f565b60405180910390f35b6103be60048036038101906103b99190613c89565b610ebc565b005b6103c8611034565b6040516103d5919061401d565b60405180910390f35b6103f860048036038101906103f39190613e54565b61105e565b604051610405919061406f565b60405180910390f35b6104166111a9565b604051610423919061401d565b60405180910390f35b6104346111c1565b604051610441919061408a565b60405180910390f35b610464600480360381019061045f9190613c11565b611263565b005b61046e611279565b60405161047b919061401d565b60405180910390f35b61049e60048036038101906104999190613b96565b611291565b005b6104ba60048036038101906104b59190613def565b611309565b6040516104c7919061406f565b60405180910390f35b6104ea60048036038101906104e59190613def565b61131b565b6040516104f7919061408a565b60405180910390f35b61051a60048036038101906105159190613b0b565b61152f565b604051610527919061406f565b60405180910390f35b61054a60048036038101906105459190613ae2565b6115c3565b005b61056660048036038101906105619190613e18565b611699565b60405161057593929190614038565b60405180910390f35b60007f80ac58cd000000000000000000000000000000000000000000000000000000007bffffffffffffffffffffffffffffffffffffffffffffffffffffffff1916827bffffffffffffffffffffffffffffffffffffffffffffffffffffffff1916148061064957507f5b5e139f000000000000000000000000000000000000000000000000000000007bffffffffffffffffffffffffffffffffffffffffffffffffffffffff1916827bffffffffffffffffffffffffffffffffffffffffffffffffffffffff1916145b80610659575061065882611720565b5b9050919050565b606060008054600181600116156101000203166002900480601f0160208091040260200160405190810160405280929190818152602001828054600181600116156101000203166002900480156106f85780601f106106cd576101008083540402835291602001916106f8565b820191906000526020600020905b8154815290600101906020018083116106db57829003601f168201915b5050505050905090565b600061070d8261178a565b610762576040517f08c379a000000000000000000000000000000000000000000000000000000000815260040180806020018281038252602c8152602001806145bc602c913960400191505060405180910390fd5b6004600083815260200190815260200160002060009054906101000a900473ffffffffffffffffffffffffffffffffffffffff169050919050565b60006107a882610b7b565b90508073ffffffffffffffffffffffffffffffffffffffff168373ffffffffffffffffffffffffffffffffffffffff16141561082f576040517f08c379a00000000000000000000000000000000000000000000000000000000081526004018080602001828103825260218152602001806146176021913960400191505060405180910390fd5b8073ffffffffffffffffffffffffffffffffffffffff1661084e6117f6565b73ffffffffffffffffffffffffffffffffffffffff16148061087d575061087c816108776117f6565b61152f565b5b6108d2576040517f08c379a00000000000000000000000000000000000000000000000000000000081526004018080602001828103825260388152602001806144a96038913960400191505060405180910390fd5b6108dc83836117fe565b505050565b7f000000000000000000000000000000000000000000000000000000000000000081565b6109166109106117f6565b826118b7565b61096b576040517f08c379a00000000000000000000000000000000000000000000000000000000081526004018080602001828103825260318152602001806146386031913960400191505060405180910390fd5b6109768383836119ab565b505050565b60006109856117f6565b73ffffffffffffffffffffffffffffffffffffffff16600760009054906101000a900473ffffffffffffffffffffffffffffffffffffffff1673ffffffffffffffffffffffffffffffffffffffff1614610a47576040517f08c379a00000000000000000000000000000000000000000000000000000000081526004018080602001828103825260208152602001807f4f776e61626c653a2063616c6c6572206973206e6f7420746865206f776e657281525060200191505060405180910390fd5b600085859050118015610a5f57508686905085859050145b8015610a7057508282905085859050145b610a7957600080fd5b610a838787611c2c565b610a8c57600080fd5b610a966008611c93565b610aa06008611ca9565b9050610aac3382611cb7565b610abb81888888888888611eee565b3073ffffffffffffffffffffffffffffffffffffffff167ff3cea5493d790af0133817606f7350a91d7f154ea52eaa79d179d4d231e5010282604051610b0191906140ec565b60405180910390a29695505050505050565b7f000000000000000000000000000000000000000000000000000000000000000081565b610b5283838360405180602001604052806000815250611291565b505050565b7f000000000000000000000000000000000000000000000000000000000000000081565b6000806002600084815260200190815260200160002060009054906101000a900473ffffffffffffffffffffffffffffffffffffffff169050600073ffffffffffffffffffffffffffffffffffffffff168173ffffffffffffffffffffffffffffffffffffffff161415610c3a576040517f08c379a000000000000000000000000000000000000000000000000000000000815260040180806020018281038252602981526020018061450b6029913960400191505060405180910390fd5b80915050919050565b60008073ffffffffffffffffffffffffffffffffffffffff168273ffffffffffffffffffffffffffffffffffffffff161415610cca576040517f08c379a000000000000000000000000000000000000000000000000000000000815260040180806020018281038252602a8152602001806144e1602a913960400191505060405180910390fd5b600360008373ffffffffffffffffffffffffffffffffffffffff1673ffffffffffffffffffffffffffffffffffffffff168152602001908152602001600020549050919050565b610d196117f6565b73ffffffffffffffffffffffffffffffffffffffff16600760009054906101000a900473ffffffffffffffffffffffffffffffffffffffff1673ffffffffffffffffffffffffffffffffffffffff1614610ddb576040517f08c379a00000000000000000000000000000000000000000000000000000000081526004018080602001828103825260208152602001807f4f776e61626c653a2063616c6c6572206973206e6f7420746865206f776e657281525060200191505060405180910390fd5b600073ffffffffffffffffffffffffffffffffffffffff16600760009054906101000a900473ffffffffffffffffffffffffffffffffffffffff1673ffffffffffffffffffffffffffffffffffffffff167f8be0079c531659141344cd1fd0a4f28419497f9722a3daafe3b4186f6b6457e060405160405180910390a36000600760006101000a81548173ffffffffffffffffffffffffffffffffffffffff021916908373ffffffffffffffffffffffffffffffffffffffff160217905550565b60096020528060005260406000206000915054906101000a900460ff1681565b610ec46117f6565b73ffffffffffffffffffffffffffffffffffffffff16600760009054906101000a900473ffffffffffffffffffffffffffffffffffffffff1673ffffffffffffffffffffffffffffffffffffffff1614610f86576040517f08c379a00000000000000000000000000000000000000000000000000000000081526004018080602001828103825260208152602001807f4f776e61626c653a2063616c6c6572206973206e6f7420746865206f776e657281525060200191505060405180910390fd5b60008383905011610f9657600080fd5b60005b838390508160ff16101561102e57816009600086868560ff16818110610fbb57fe5b9050602002016020810190610fd09190613ae2565b73ffffffffffffffffffffffffffffffffffffffff1673ffffffffffffffffffffffffffffffffffffffff16815260200190815260200160002060006101000a81548160ff0219169083151502179055508080600101915050610f99565b50505050565b6000600760009054906101000a900473ffffffffffffffffffffffffffffffffffffffff16905090565b60006110698461178a565b6110a8576040517f08c379a000000000000000000000000000000000000000000000000000000000815260040161109f906140ac565b60405180910390fd5b600083116110b557600080fd5b600960008373ffffffffffffffffffffffffffffffffffffffff1673ffffffffffffffffffffffffffffffffffffffff16815260200190815260200160002060009054906101000a900460ff16611141576040517f08c379a0000000000000000000000000000000000000000000000000000000008152600401611138906140cc565b60405180910390fd5b61114c84848461208e565b3373ffffffffffffffffffffffffffffffffffffffff167f2c0f148b435140de488c1b34647f1511c646f7077e87007bacf22ef9977a16d885848660405161119693929190614107565b60405180910390a2600190509392505050565b73ae13d989dac2f0debff460ac112a837c89baa7cd81565b606060018054600181600116156101000203166002900480601f0160208091040260200160405190810160405280929190818152602001828054600181600116156101000203166002900480156112595780601f1061122e57610100808354040283529160200191611259565b820191906000526020600020905b81548152906001019060200180831161123c57829003601f168201915b5050505050905090565b61127561126e6117f6565b83836123c3565b5050565b739ac64cc6e4415144c455bd8e4837fea55603e5c381565b6112a261129c6117f6565b836118b7565b6112f7576040517f08c379a00000000000000000000000000000000000000000000000000000000081526004018080602001828103825260318152602001806146386031913960400191505060405180910390fd5b61130384848484612565565b50505050565b60006113148261178a565b9050919050565b60606113268261178a565b61137b576040517f08c379a00000000000000000000000000000000000000000000000000000000081526004018080602001828103825260318152602001806145346031913960400191505060405180910390fd5b6060600660008481526020019081526020016000208054600181600116156101000203166002900480601f0160208091040260200160405190810160405280929190818152602001828054600181600116156101000203166002900480156114245780601f106113f957610100808354040283529160200191611424565b820191906000526020600020905b81548152906001019060200180831161140757829003601f168201915b5050505050905060606114356125d7565b905060008151141561144b57819250505061152a565b60008251111561151c5780826040516020018083805190602001908083835b6020831061148d578051825260208201915060208101905060208303925061146a565b6001836020036101000a03801982511681845116808217855250505050505090500182805190602001908083835b602083106114de57805182526020820191506020810190506020830392506114bb565b6001836020036101000a038019825116818451168082178552505050505050905001925050506040516020818303038152906040529250505061152a565b611525846125ee565b925050505b919050565b6000600560008473ffffffffffffffffffffffffffffffffffffffff1673ffffffffffffffffffffffffffffffffffffffff16815260200190815260200160002060008373ffffffffffffffffffffffffffffffffffffffff1673ffffffffffffffffffffffffffffffffffffffff16815260200190815260200160002060009054906101000a900460ff16905092915050565b6115cb6117f6565b73ffffffffffffffffffffffffffffffffffffffff16600760009054906101000a900473ffffffffffffffffffffffffffffffffffffffff1673ffffffffffffffffffffffffffffffffffffffff161461168d576040517f08c379a00000000000000000000000000000000000000000000000000000000081526004018080602001828103825260208152602001807f4f776e61626c653a2063616c6c6572206973206e6f7420746865206f776e657281525060200191505060405180910390fd5b61169681612747565b50565b600a60205281600052604060002081815481106116b557600080fd5b9060005260206000209060030201600091509150508060000160009054906101000a900473ffffffffffffffffffffffffffffffffffffffff16908060010160009054906101000a900473ffffffffffffffffffffffffffffffffffffffff16908060020154905083565b60007f01ffc9a7000000000000000000000000000000000000000000000000000000007bffffffffffffffffffffffffffffffffffffffffffffffffffffffff1916827bffffffffffffffffffffffffffffffffffffffffffffffffffffffff1916149050919050565b60008073ffffffffffffffffffffffffffffffffffffffff166002600084815260200190815260200160002060009054906101000a900473ffffffffffffffffffffffffffffffffffffffff1673ffffffffffffffffffffffffffffffffffffffff1614159050919050565b600033905090565b816004600083815260200190815260200160002060006101000a81548173ffffffffffffffffffffffffffffffffffffffff021916908373ffffffffffffffffffffffffffffffffffffffff160217905550808273ffffffffffffffffffffffffffffffffffffffff1661187183610b7b565b73ffffffffffffffffffffffffffffffffffffffff167f8c5be1e5ebec7d5bd14f71427d1e84f3dd0314c0f7b2291e5b200ac8c7c3b92560405160405180910390a45050565b60006118c28261178a565b611917576040517f08c379a000000000000000000000000000000000000000000000000000000000815260040180806020018281038252602c81526020018061447d602c913960400191505060405180910390fd5b600061192283610b7b565b90508073ffffffffffffffffffffffffffffffffffffffff168473ffffffffffffffffffffffffffffffffffffffff16148061199157508373ffffffffffffffffffffffffffffffffffffffff1661197984610702565b73ffffffffffffffffffffffffffffffffffffffff16145b806119a257506119a1818561152f565b5b91505092915050565b8273ffffffffffffffffffffffffffffffffffffffff166119cb82610b7b565b73ffffffffffffffffffffffffffffffffffffffff1614611a37576040517f08c379a00000000000000000000000000000000000000000000000000000000081526004018080602001828103825260258152602001806144346025913960400191505060405180910390fd5b600073ffffffffffffffffffffffffffffffffffffffff168273ffffffffffffffffffffffffffffffffffffffff161415611abd576040517f08c379a00000000000000000000000000000000000000000000000000000000081526004018080602001828103825260248152602001806144596024913960400191505060405180910390fd5b611ac883838361288d565b611ad36000826117fe565b6001600360008573ffffffffffffffffffffffffffffffffffffffff1673ffffffffffffffffffffffffffffffffffffffff168152602001908152602001600020600082825403925050819055506001600360008473ffffffffffffffffffffffffffffffffffffffff1673ffffffffffffffffffffffffffffffffffffffff16815260200190815260200160002060008282540192505081905550816002600083815260200190815260200160002060006101000a81548173ffffffffffffffffffffffffffffffffffffffff021916908373ffffffffffffffffffffffffffffffffffffffff160217905550808273ffffffffffffffffffffffffffffffffffffffff168473ffffffffffffffffffffffffffffffffffffffff167fddf252ad1be2c89b69c2b068fc378daa952ba7f163c4a11628f55a4df523b3ef60405160405180910390a4611c27838383612892565b505050565b60008060005b84849050811015611c7157611c62858583818110611c4c57fe5b905060200201358361289790919063ffffffff16565b91508080600101915050611c32565b506000611c896127108361291f90919063ffffffff16565b1491505092915050565b6001816000016000828254019250508190555050565b600081600001549050919050565b600073ffffffffffffffffffffffffffffffffffffffff168273ffffffffffffffffffffffffffffffffffffffff161415611d5a576040517f08c379a00000000000000000000000000000000000000000000000000000000081526004018080602001828103825260208152602001807f4552433732313a206d696e7420746f20746865207a65726f206164647265737381525060200191505060405180910390fd5b611d638161178a565b15611dd6576040517f08c379a000000000000000000000000000000000000000000000000000000000815260040180806020018281038252601c8152602001807f4552433732313a20746f6b656e20616c7265616479206d696e7465640000000081525060200191505060405180910390fd5b611de26000838361288d565b6001600360008473ffffffffffffffffffffffffffffffffffffffff1673ffffffffffffffffffffffffffffffffffffffff16815260200190815260200160002060008282540192505081905550816002600083815260200190815260200160002060006101000a81548173ffffffffffffffffffffffffffffffffffffffff021916908373ffffffffffffffffffffffffffffffffffffffff160217905550808273ffffffffffffffffffffffffffffffffffffffff16600073ffffffffffffffffffffffffffffffffffffffff167fddf252ad1be2c89b69c2b068fc378daa952ba7f163c4a11628f55a4df523b3ef60405160405180910390a4611eea60008383612892565b5050565b60005b848490508160ff16101561208457600b6000898152602001908152602001600020604051806060016040528089898560ff16818110611f2c57fe5b90506020020135815260200187878560ff16818110611f4757fe5b9050602002016020810190611f5c9190613ae2565b73ffffffffffffffffffffffffffffffffffffffff16815260200185858560ff16818110611f8657fe5b9050602002016020810190611f9b9190613ae2565b73ffffffffffffffffffffffffffffffffffffffff1681525090806001815401808255809150506001900390600052602060002090600302016000909190919091506000820151816000015560208201518160010160006101000a81548173ffffffffffffffffffffffffffffffffffffffff021916908373ffffffffffffffffffffffffffffffffffffffff16021790555060408201518160020160006101000a81548173ffffffffffffffffffffffffffffffffffffffff021916908373ffffffffffffffffffffffffffffffffffffffff16021790555050508080600101915050611ef1565b5050505050505050565b6120bb3330848473ffffffffffffffffffffffffffffffffffffffff16612969909392919063ffffffff16565b6120fa739ac64cc6e4415144c455bd8e4837fea55603e5c3838373ffffffffffffffffffffffffffffffffffffffff16612a2a9092919063ffffffff16565b6060600b6000858152602001908152602001600020805480602002602001604051908101604052809291908181526020016000905b828210156122175783829060005260206000209060030201604051806060016040529081600082015481526020016001820160009054906101000a900473ffffffffffffffffffffffffffffffffffffffff1673ffffffffffffffffffffffffffffffffffffffff1673ffffffffffffffffffffffffffffffffffffffff1681526020016002820160009054906101000a900473ffffffffffffffffffffffffffffffffffffffff1673ffffffffffffffffffffffffffffffffffffffff1673ffffffffffffffffffffffffffffffffffffffff16815250508152602001906001019061212f565b50505050905060005b81518160ff16101561229f576122346138c1565b828260ff168151811061224357fe5b60200260200101519050600061227a61271061226c846000015189612bef90919063ffffffff16565b612c7590919063ffffffff16565b9050600061228d82878560200151612cbf565b90505050508080600101915050612220565b50600a600085815260200190815260200160002060405180606001604052803373ffffffffffffffffffffffffffffffffffffffff1681526020018473ffffffffffffffffffffffffffffffffffffffff16815260200185815250908060018154018082558091505060019003906000526020600020906003020160009091909190915060008201518160000160006101000a81548173ffffffffffffffffffffffffffffffffffffffff021916908373ffffffffffffffffffffffffffffffffffffffff16021790555060208201518160010160006101000a81548173ffffffffffffffffffffffffffffffffffffffff021916908373ffffffffffffffffffffffffffffffffffffffff16021790555060408201518160020155505050505050565b8173ffffffffffffffffffffffffffffffffffffffff168373ffffffffffffffffffffffffffffffffffffffff161415612465576040517f08c379a00000000000000000000000000000000000000000000000000000000081526004018080602001828103825260198152602001807f4552433732313a20617070726f766520746f2063616c6c65720000000000000081525060200191505060405180910390fd5b80600560008573ffffffffffffffffffffffffffffffffffffffff1673ffffffffffffffffffffffffffffffffffffffff16815260200190815260200160002060008473ffffffffffffffffffffffffffffffffffffffff1673ffffffffffffffffffffffffffffffffffffffff16815260200190815260200160002060006101000a81548160ff0219169083151502179055508173ffffffffffffffffffffffffffffffffffffffff168373ffffffffffffffffffffffffffffffffffffffff167f17307eab39ab6107e8899845ad3d59bd9653f200f220920489ca2b5937696c318360405180821515815260200191505060405180910390a3505050565b6125708484846119ab565b61257c84848484613040565b6125d1576040517f08c379a00000000000000000000000000000000000000000000000000000000081526004018080602001828103825260328152602001806143b26032913960400191505060405180910390fd5b50505050565b606060405180602001604052806000815250905090565b60606125f98261178a565b61264e576040517f08c379a000000000000000000000000000000000000000000000000000000000815260040180806020018281038252602f8152602001806145e8602f913960400191505060405180910390fd5b60606126586125d7565b90506000815111612678576040518060200160405280600081525061273f565b8061268284613293565b6040516020018083805190602001908083835b602083106126b85780518252602082019150602081019050602083039250612695565b6001836020036101000a03801982511681845116808217855250505050505090500182805190602001908083835b6020831061270957805182526020820191506020810190506020830392506126e6565b6001836020036101000a038019825116818451168082178552505050505050905001925050506040516020818303038152906040525b915050919050565b600073ffffffffffffffffffffffffffffffffffffffff168173ffffffffffffffffffffffffffffffffffffffff1614156127cd576040517f08c379a000000000000000000000000000000000000000000000000000000000815260040180806020018281038252602681526020018061440e6026913960400191505060405180910390fd5b8073ffffffffffffffffffffffffffffffffffffffff16600760009054906101000a900473ffffffffffffffffffffffffffffffffffffffff1673ffffffffffffffffffffffffffffffffffffffff167f8be0079c531659141344cd1fd0a4f28419497f9722a3daafe3b4186f6b6457e060405160405180910390a380600760006101000a81548173ffffffffffffffffffffffffffffffffffffffff021916908373ffffffffffffffffffffffffffffffffffffffff16021790555050565b505050565b505050565b600080828401905083811015612915576040517f08c379a000000000000000000000000000000000000000000000000000000000815260040180806020018281038252601b8152602001807f536166654d6174683a206164646974696f6e206f766572666c6f77000000000081525060200191505060405180910390fd5b8091505092915050565b600061296183836040518060400160405280601e81526020017f536166654d6174683a207375627472616374696f6e206f766572666c6f7700008152506133cd565b905092915050565b612a24846323b872dd60e01b858585604051602401808473ffffffffffffffffffffffffffffffffffffffff1681526020018373ffffffffffffffffffffffffffffffffffffffff1681526020018281526020019350505050604051602081830303815290604052907bffffffffffffffffffffffffffffffffffffffffffffffffffffffff19166020820180517bffffffffffffffffffffffffffffffffffffffffffffffffffffffff838183161783525050505061348d565b50505050565b6000811480612af8575060008373ffffffffffffffffffffffffffffffffffffffff1663dd62ed3e30856040518363ffffffff1660e01b8152600401808373ffffffffffffffffffffffffffffffffffffffff1681526020018273ffffffffffffffffffffffffffffffffffffffff1681526020019250505060206040518083038186803b158015612abb57600080fd5b505afa158015612acf573d6000803e3d6000fd5b505050506040513d6020811015612ae557600080fd5b8101908080519060200190929190505050145b612b4d576040517f08c379a00000000000000000000000000000000000000000000000000000000081526004018080602001828103825260368152602001806145866036913960400191505060405180910390fd5b612bea8363095ea7b360e01b8484604051602401808373ffffffffffffffffffffffffffffffffffffffff16815260200182815260200192505050604051602081830303815290604052907bffffffffffffffffffffffffffffffffffffffffffffffffffffffff19166020820180517bffffffffffffffffffffffffffffffffffffffffffffffffffffffff838183161783525050505061348d565b505050565b600080831415612c025760009050612c6f565b6000828402905082848281612c1357fe5b0414612c6a576040517f08c379a00000000000000000000000000000000000000000000000000000000081526004018080602001828103825260218152602001806145656021913960400191505060405180910390fd5b809150505b92915050565b6000612cb783836040518060400160405280601a81526020017f536166654d6174683a206469766973696f6e206279207a65726f00000000000081525061357c565b905092915050565b6000606073ae13d989dac2f0debff460ac112a837c89baa7cd73ffffffffffffffffffffffffffffffffffffffff168373ffffffffffffffffffffffffffffffffffffffff161480612d50575073ae13d989dac2f0debff460ac112a837c89baa7cd73ffffffffffffffffffffffffffffffffffffffff168473ffffffffffffffffffffffffffffffffffffffff16145b15612e3457600267ffffffffffffffff81118015612d6d57600080fd5b50604051908082528060200260200182016040528015612d9c5781602001602082028036833780820191505090505b5090508381600081518110612dad57fe5b602002602001019073ffffffffffffffffffffffffffffffffffffffff16908173ffffffffffffffffffffffffffffffffffffffff16815250508281600181518110612df557fe5b602002602001019073ffffffffffffffffffffffffffffffffffffffff16908173ffffffffffffffffffffffffffffffffffffffff1681525050612f6b565b600367ffffffffffffffff81118015612e4c57600080fd5b50604051908082528060200260200182016040528015612e7b5781602001602082028036833780820191505090505b5090508381600081518110612e8c57fe5b602002602001019073ffffffffffffffffffffffffffffffffffffffff16908173ffffffffffffffffffffffffffffffffffffffff168152505073ae13d989dac2f0debff460ac112a837c89baa7cd81600181518110612ee857fe5b602002602001019073ffffffffffffffffffffffffffffffffffffffff16908173ffffffffffffffffffffffffffffffffffffffff16815250508281600281518110612f3057fe5b602002602001019073ffffffffffffffffffffffffffffffffffffffff16908173ffffffffffffffffffffffffffffffffffffffff16815250505b6060739ac64cc6e4415144c455bd8e4837fea55603e5c373ffffffffffffffffffffffffffffffffffffffff166338ed1739876000853060006040518663ffffffff1660e01b8152600401612fc495949392919061413e565b600060405180830381600087803b158015612fde57600080fd5b505af1158015612ff2573d6000803e3d6000fd5b505050506040513d6000823e3d601f19601f8201168201806040525081019061301b9190613d85565b90508060018251038151811061302d57fe5b6020026020010151925050509392505050565b60006130618473ffffffffffffffffffffffffffffffffffffffff16613658565b15613286578373ffffffffffffffffffffffffffffffffffffffff1663150b7a0261308a6117f6565b8786866040518563ffffffff1660e01b8152600401808573ffffffffffffffffffffffffffffffffffffffff1681526020018473ffffffffffffffffffffffffffffffffffffffff16815260200183815260200180602001828103825283818151815260200191508051906020019080838360005b8381101561311a5780820151818401526020810190506130ff565b50505050905090810190601f1680156131475780820380516001836020036101000a031916815260200191505b5095505050505050602060405180830381600087803b15801561316957600080fd5b505af192505050801561319d57506040513d602081101561318957600080fd5b810190808051906020019092919050505060015b613236573d80600081146131cd576040519150601f19603f3d011682016040523d82523d6000602084013e6131d2565b606091505b5060008151141561322e576040517f08c379a00000000000000000000000000000000000000000000000000000000081526004018080602001828103825260328152602001806143b26032913960400191505060405180910390fd5b805181602001fd5b63150b7a0260e01b7bffffffffffffffffffffffffffffffffffffffffffffffffffffffff1916817bffffffffffffffffffffffffffffffffffffffffffffffffffffffff19161491505061328b565b600190505b949350505050565b606060008214156132db576040518060400160405280600181526020017f300000000000000000000000000000000000000000000000000000000000000081525090506133c8565b600082905060005b60008214613305578080600101915050600a82816132fd57fe5b0491506132e3565b60608167ffffffffffffffff8111801561331e57600080fd5b506040519080825280601f01601f1916602001820160405280156133515781602001600182028036833780820191505090505b5090505b600085146133c157600182039150600a858161336d57fe5b0660300160f81b81838151811061338057fe5b60200101907effffffffffffffffffffffffffffffffffffffffffffffffffffffffffffff1916908160001a905350600a85816133b957fe5b049450613355565b8093505050505b919050565b600083831115829061347a576040517f08c379a00000000000000000000000000000000000000000000000000000000081526004018080602001828103825283818151815260200191508051906020019080838360005b8381101561343f578082015181840152602081019050613424565b50505050905090810190601f16801561346c5780820380516001836020036101000a031916815260200191505b509250505060405180910390fd5b5060008385039050809150509392505050565b60606134ef826040518060400160405280602081526020017f5361666542455032303a206c6f772d6c6576656c2063616c6c206661696c65648152508573ffffffffffffffffffffffffffffffffffffffff166136a39092919063ffffffff16565b90506000815111156135775780806020019051602081101561351057600080fd5b8101908080519060200190929190505050613576576040517f08c379a000000000000000000000000000000000000000000000000000000000815260040180806020018281038252602a8152602001806143e4602a913960400191505060405180910390fd5b5b505050565b60008083118290613628576040517f08c379a00000000000000000000000000000000000000000000000000000000081526004018080602001828103825283818151815260200191508051906020019080838360005b838110156135ed5780820151818401526020810190506135d2565b50505050905090810190601f16801561361a5780820380516001836020036101000a031916815260200191505b509250505060405180910390fd5b50600083858161363457fe5b04905083858161364057fe5b0681850201851461364d57fe5b809150509392505050565b60008060007fc5d2460186f7233c927e7db2dcc703c0e500b653ca82273b7bfad8045d85a47060001b9050833f915080821415801561369a57506000801b8214155b92505050919050565b60606136b284846000856136bb565b90509392505050565b60606136c685613658565b613738576040517f08c379a000000000000000000000000000000000000000000000000000000000815260040180806020018281038252601d8152602001807f416464726573733a2063616c6c20746f206e6f6e2d636f6e747261637400000081525060200191505060405180910390fd5b600060608673ffffffffffffffffffffffffffffffffffffffff1685876040518082805190602001908083835b602083106137885780518252602082019150602081019050602083039250613765565b6001836020036101000a03801982511681845116808217855250505050505090500191505060006040518083038185875af1925050503d80600081146137ea576040519150601f19603f3d011682016040523d82523d6000602084013e6137ef565b606091505b509150915081156138045780925050506138b9565b6000815111156138175780518082602001fd5b836040517f08c379a00000000000000000000000000000000000000000000000000000000081526004018080602001828103825283818151815260200191508051906020019080838360005b8381101561387e578082015181840152602081019050613863565b50505050905090810190601f1680156138ab5780820380516001836020036101000a031916815260200191505b509250505060405180910390fd5b949350505050565b604051806060016040528060008152602001600073ffffffffffffffffffffffffffffffffffffffff168152602001600073ffffffffffffffffffffffffffffffffffffffff1681525090565b60008135905061391d81614355565b92915050565b60008083601f84011261393557600080fd5b8235905067ffffffffffffffff81111561394e57600080fd5b60208301915083602082028301111561396657600080fd5b9250929050565b60008083601f84011261397f57600080fd5b8235905067ffffffffffffffff81111561399857600080fd5b6020830191508360208202830111156139b057600080fd5b9250929050565b600082601f8301126139c857600080fd5b81516139db6139d6826141c9565b614198565b91508181835260208401935060208101905083856020840282011115613a0057600080fd5b60005b83811015613a305781613a168882613acd565b845260208401935060208301925050600181019050613a03565b5050505092915050565b600081359050613a498161436c565b92915050565b600081359050613a5e81614383565b92915050565b600082601f830112613a7557600080fd5b8135613a88613a83826141f5565b614198565b91508082526020830160208301858383011115613aa457600080fd5b613aaf838284614300565b50505092915050565b600081359050613ac78161439a565b92915050565b600081519050613adc8161439a565b92915050565b600060208284031215613af457600080fd5b6000613b028482850161390e565b91505092915050565b60008060408385031215613b1e57600080fd5b6000613b2c8582860161390e565b9250506020613b3d8582860161390e565b9150509250929050565b600080600060608486031215613b5c57600080fd5b6000613b6a8682870161390e565b9350506020613b7b8682870161390e565b9250506040613b8c86828701613ab8565b9150509250925092565b60008060008060808587031215613bac57600080fd5b6000613bba8782880161390e565b9450506020613bcb8782880161390e565b9350506040613bdc87828801613ab8565b925050606085013567ffffffffffffffff811115613bf957600080fd5b613c0587828801613a64565b91505092959194509250565b60008060408385031215613c2457600080fd5b6000613c328582860161390e565b9250506020613c4385828601613a3a565b9150509250929050565b60008060408385031215613c6057600080fd5b6000613c6e8582860161390e565b9250506020613c7f85828601613ab8565b9150509250929050565b600080600060408486031215613c9e57600080fd5b600084013567ffffffffffffffff811115613cb857600080fd5b613cc486828701613923565b93509350506020613cd786828701613a3a565b9150509250925092565b60008060008060008060608789031215613cfa57600080fd5b600087013567ffffffffffffffff811115613d1457600080fd5b613d2089828a0161396d565b9650965050602087013567ffffffffffffffff811115613d3f57600080fd5b613d4b89828a01613923565b9450945050604087013567ffffffffffffffff811115613d6a57600080fd5b613d7689828a01613923565b92509250509295509295509295565b600060208284031215613d9757600080fd5b600082015167ffffffffffffffff811115613db157600080fd5b613dbd848285016139b7565b91505092915050565b600060208284031215613dd857600080fd5b6000613de684828501613a4f565b91505092915050565b600060208284031215613e0157600080fd5b6000613e0f84828501613ab8565b91505092915050565b60008060408385031215613e2b57600080fd5b6000613e3985828601613ab8565b9250506020613e4a85828601613ab8565b9150509250929050565b600080600060608486031215613e6957600080fd5b6000613e7786828701613ab8565b9350506020613e8886828701613ab8565b9250506040613e998682870161390e565b9150509250925092565b6000613eaf8383613ebb565b60208301905092915050565b613ec48161427a565b82525050565b613ed38161427a565b82525050565b6000613ee482614235565b613eee8185614258565b9350613ef983614225565b8060005b83811015613f2a578151613f118882613ea3565b9750613f1c8361424b565b925050600181019050613efd565b5085935050505092915050565b613f408161428c565b82525050565b613f4f816142ee565b82525050565b6000613f6082614240565b613f6a8185614269565b9350613f7a81856020860161430f565b613f8381614344565b840191505092915050565b6000613f9b601583614269565b91507f4552433732313a204e4654206e6f7420657869737400000000000000000000006000830152602082019050919050565b6000613fdb601183614269565b91507f4e6f7420616c6c6f77656420746f6b656e0000000000000000000000000000006000830152602082019050919050565b614017816142e4565b82525050565b60006020820190506140326000830184613eca565b92915050565b600060608201905061404d6000830186613eca565b61405a6020830185613eca565b614067604083018461400e565b949350505050565b60006020820190506140846000830184613f37565b92915050565b600060208201905081810360008301526140a48184613f55565b905092915050565b600060208201905081810360008301526140c581613f8e565b9050919050565b600060208201905081810360008301526140e581613fce565b9050919050565b6000602082019050614101600083018461400e565b92915050565b600060608201905061411c600083018661400e565b6141296020830185613eca565b614136604083018461400e565b949350505050565b600060a082019050614153600083018861400e565b6141606020830187613f46565b81810360408301526141728186613ed9565b90506141816060830185613eca565b61418e6080830184613f46565b9695505050505050565b6000604051905081810181811067ffffffffffffffff821117156141bf576141be614342565b5b8060405250919050565b600067ffffffffffffffff8211156141e4576141e3614342565b5b602082029050602081019050919050565b600067ffffffffffffffff8211156142105761420f614342565b5b601f19601f8301169050602081019050919050565b6000819050602082019050919050565b600081519050919050565b600081519050919050565b6000602082019050919050565b600082825260208201905092915050565b600082825260208201905092915050565b6000614285826142c4565b9050919050565b60008115159050919050565b60007fffffffff0000000000000000000000000000000000000000000000000000000082169050919050565b600073ffffffffffffffffffffffffffffffffffffffff82169050919050565b6000819050919050565b60006142f9826142e4565b9050919050565b82818337600083830152505050565b60005b8381101561432d578082015181840152602081019050614312565b8381111561433c576000848401525b50505050565bfe5b6000601f19601f8301169050919050565b61435e8161427a565b811461436957600080fd5b50565b6143758161428c565b811461438057600080fd5b50565b61438c81614298565b811461439757600080fd5b50565b6143a3816142e4565b81146143ae57600080fd5b5056fe4552433732313a207472616e7366657220746f206e6f6e20455243373231526563656976657220696d706c656d656e7465725361666542455032303a204245503230206f7065726174696f6e20646964206e6f7420737563636565644f776e61626c653a206e6577206f776e657220697320746865207a65726f20616464726573734552433732313a207472616e736665722066726f6d20696e636f7272656374206f776e65724552433732313a207472616e7366657220746f20746865207a65726f20616464726573734552433732313a206f70657261746f7220717565727920666f72206e6f6e6578697374656e7420746f6b656e4552433732313a20617070726f76652063616c6c6572206973206e6f74206f776e6572206e6f7220617070726f76656420666f7220616c6c4552433732313a2062616c616e636520717565727920666f7220746865207a65726f20616464726573734552433732313a206f776e657220717565727920666f72206e6f6e6578697374656e7420746f6b656e45524337323155524953746f726167653a2055524920717565727920666f72206e6f6e6578697374656e7420746f6b656e536166654d6174683a206d756c7469706c69636174696f6e206f766572666c6f775361666542455032303a20617070726f76652066726f6d206e6f6e2d7a65726f20746f206e6f6e2d7a65726f20616c6c6f77616e63654552433732313a20617070726f76656420717565727920666f72206e6f6e6578697374656e7420746f6b656e4552433732314d657461646174613a2055524920717565727920666f72206e6f6e6578697374656e7420746f6b656e4552433732313a20617070726f76616c20746f2063757272656e74206f776e65724552433732313a207472616e736665722063616c6c6572206973206e6f74206f776e6572206e6f7220617070726f766564a26469706673582212200c9e2b88bd735246b1e0a30923d04ffdb7bbdbf4f8bab9790d5b2c210dbf2c9064736f6c63430007050033",
  "linkReferences": {},
  "deployedLinkReferences": {}
}